{
  "contractName": "ERC20",
  "abi": [
    {
      "anonymous": false,
      "inputs": [
        {
          "indexed": true,
          "name": "from",
          "type": "address"
        },
        {
          "indexed": true,
          "name": "to",
          "type": "address"
        },
        {
          "indexed": false,
          "name": "value",
          "type": "uint256"
        }
      ],
      "name": "Transfer",
      "type": "event"
    },
    {
      "constant": false,
      "inputs": [
        {
          "name": "from",
          "type": "address"
        },
        {
          "name": "to",
          "type": "address"
        },
        {
          "name": "value",
          "type": "uint256"
        }
      ],
      "name": "transferFrom",
      "outputs": [
        {
          "name": "",
          "type": "bool"
        }
      ],
      "payable": false,
      "stateMutability": "nonpayable",
      "type": "function"
    }
  ],
  "bytecode": "0x608060405234801561001057600080fd5b5061015d806100206000396000f3fe608060405234801561001057600080fd5b506004361061002b5760003560e01c806323b872dd14610030575b600080fd5b61009c6004803603606081101561004657600080fd5b81019080803573ffffffffffffffffffffffffffffffffffffffff169060200190929190803573ffffffffffffffffffffffffffffffffffffffff169060200190929190803590602001909291905050506100b6565b604051808215151515815260200191505060405180910390f35b60008273ffffffffffffffffffffffffffffffffffffffff168473ffffffffffffffffffffffffffffffffffffffff167fddf252ad1be2c89b69c2b068fc378daa952ba7f163c4a11628f55a4df523b3ef846040518082815260200191505060405180910390a360019050939250505056fea265627a7a72305820a5a38cd7610cdbfca10c1723803937093288fc5582c38e7a89b3a8e87ee22dfb64736f6c634300050a0032",
  "source": "pragma solidity ^0.5.10;\n\ncontract ERC20 {\n    event Transfer(address indexed from, address indexed to, uint256 value);\n    function transferFrom(address from, address to, uint256 value) public returns (bool) {\n        emit Transfer(from, to, value);\n        return true;\n    }\n}\n",
  "sourcePath": "/home/wtf/Work/web3-issue-2933-demo/contracts/ERC20.sol",
  "compiler": {
    "name": "solc",
    "version": "0.5.10+commit.92529068.Linux.g++"
  },
  "schemaVersion": "3.0.11",
  "updatedAt": "2019-07-09T21:58:44.706Z",
  "devdoc": {
    "methods": {}
  },
  "userdoc": {
    "methods": {}
  }
}