{
  "contractName": "ERC721",
  "abi": [
    {
      "anonymous": false,
      "inputs": [
        {
          "indexed": true,
          "name": "from",
          "type": "address"
        },
        {
          "indexed": true,
          "name": "to",
          "type": "address"
        },
        {
          "indexed": true,
          "name": "tokenId",
          "type": "uint256"
        }
      ],
      "name": "Transfer",
      "type": "event"
    },
    {
      "constant": false,
      "inputs": [
        {
          "name": "from",
          "type": "address"
        },
        {
          "name": "to",
          "type": "address"
        },
        {
          "name": "tokenId",
          "type": "uint256"
        }
      ],
      "name": "transferFrom",
      "outputs": [],
      "payable": false,
      "stateMutability": "nonpayable",
      "type": "function"
    }
  ],
  "bytecode": "0x608060405234801561001057600080fd5b5061012d806100206000396000f3fe6080604052348015600f57600080fd5b506004361060285760003560e01c806323b872dd14602d575b600080fd5b609660048036036060811015604157600080fd5b81019080803573ffffffffffffffffffffffffffffffffffffffff169060200190929190803573ffffffffffffffffffffffffffffffffffffffff169060200190929190803590602001909291905050506098565b005b808273ffffffffffffffffffffffffffffffffffffffff168473ffffffffffffffffffffffffffffffffffffffff167fddf252ad1be2c89b69c2b068fc378daa952ba7f163c4a11628f55a4df523b3ef60405160405180910390a450505056fea265627a7a72305820bcd70972b9cea26cb4673a1b2fe9fe8f35d565963e5739573203e98bf9ccce0a64736f6c634300050a0032",
  "source": "pragma solidity ^0.5.10;\n\ncontract ERC721 {\n    event Transfer(address indexed from, address indexed to, uint256 indexed tokenId);\n    function transferFrom(address from, address to, uint256 tokenId) public {\n        emit Transfer(from, to, tokenId);\n    }\n}\n",
  "sourcePath": "/home/wtf/Work/web3-issue-2933-demo/contracts/ERC721.sol",
  "compiler": {
    "name": "solc",
    "version": "0.5.10+commit.92529068.Linux.g++"
  },
  "schemaVersion": "3.0.11",
  "updatedAt": "2019-07-09T21:58:44.707Z",
  "devdoc": {
    "methods": {}
  },
  "userdoc": {
    "methods": {}
  }
}