{
  "contractName": "Main",
  "abi": [
    {
      "inputs": [
        {
          "name": "_addrERC20",
          "type": "address"
        },
        {
          "name": "_addrERC721",
          "type": "address"
        }
      ],
      "payable": false,
      "stateMutability": "nonpayable",
      "type": "constructor"
    },
    {
      "anonymous": false,
      "inputs": [
        {
          "indexed": true,
          "name": "_addrMain",
          "type": "address"
        },
        {
          "indexed": true,
          "name": "_addrERC20",
          "type": "address"
        },
        {
          "indexed": true,
          "name": "_addrERC721",
          "type": "address"
        }
      ],
      "name": "MainTransfer",
      "type": "event"
    },
    {
      "constant": false,
      "inputs": [],
      "name": "transfer",
      "outputs": [],
      "payable": false,
      "stateMutability": "nonpayable",
      "type": "function"
    }
  ],
  "bytecode": "0x608060405234801561001057600080fd5b5060405161045a38038061045a8339818101604052604081101561003357600080fd5b810190808051906020019092919080519060200190929190505050816000806101000a81548173ffffffffffffffffffffffffffffffffffffffff021916908373ffffffffffffffffffffffffffffffffffffffff16021790555080600160006101000a81548173ffffffffffffffffffffffffffffffffffffffff021916908373ffffffffffffffffffffffffffffffffffffffff160217905550505061037a806100e06000396000f3fe608060405234801561001057600080fd5b506004361061002b5760003560e01c80638a4068dd14610030575b600080fd5b61003861003a565b005b600160009054906101000a900473ffffffffffffffffffffffffffffffffffffffff1673ffffffffffffffffffffffffffffffffffffffff166000809054906101000a900473ffffffffffffffffffffffffffffffffffffffff1673ffffffffffffffffffffffffffffffffffffffff163073ffffffffffffffffffffffffffffffffffffffff167f84bb82b0ccf56b0d666792b6aab5c6da548912808846344a81e61445ff478adc60405160405180910390a46000809054906101000a900473ffffffffffffffffffffffffffffffffffffffff1673ffffffffffffffffffffffffffffffffffffffff166323b872dd6000809054906101000a900473ffffffffffffffffffffffffffffffffffffffff1630620186a06040518463ffffffff1660e01b8152600401808473ffffffffffffffffffffffffffffffffffffffff1673ffffffffffffffffffffffffffffffffffffffff1681526020018373ffffffffffffffffffffffffffffffffffffffff1673ffffffffffffffffffffffffffffffffffffffff1681526020018281526020019350505050602060405180830381600087803b1580156101ee57600080fd5b505af1158015610202573d6000803e3d6000fd5b505050506040513d602081101561021857600080fd5b810190808051906020019092919050505050600160009054906101000a900473ffffffffffffffffffffffffffffffffffffffff1673ffffffffffffffffffffffffffffffffffffffff166323b872dd600160009054906101000a900473ffffffffffffffffffffffffffffffffffffffff16306103096040518463ffffffff1660e01b8152600401808473ffffffffffffffffffffffffffffffffffffffff1673ffffffffffffffffffffffffffffffffffffffff1681526020018373ffffffffffffffffffffffffffffffffffffffff1673ffffffffffffffffffffffffffffffffffffffff1681526020018281526020019350505050600060405180830381600087803b15801561032b57600080fd5b505af115801561033f573d6000803e3d6000fd5b5050505056fea265627a7a7230582025a8425267652c030fa42fd6c155252ad9282c9ad51493e884959c6ed462ca9664736f6c634300050a0032",
  "source": "pragma solidity ^0.5.10;\n\nimport \"./ERC20.sol\";\nimport \"./ERC721.sol\";\n\ncontract Main {\n    event MainTransfer(address indexed _addrMain, address indexed _addrERC20, address indexed _addrERC721);\n    address addrERC20;\n    address addrERC721;\n    constructor(address _addrERC20, address _addrERC721) public {\n        addrERC20 = _addrERC20;\n        addrERC721 = _addrERC721;\n    }\n    function transfer() public {\n        emit MainTransfer(address(this), addrERC20, addrERC721);\n        ERC20(addrERC20).transferFrom(addrERC20, address(this), 100000);\n        ERC721(addrERC721).transferFrom(addrERC721, address(this), 777);\n    }\n}\n",
  "sourcePath": "/home/wtf/Work/web3-issue-2933-demo/contracts/Main.sol",
  "compiler": {
    "name": "solc",
    "version": "0.5.10+commit.92529068.Linux.g++"
  },
  "schemaVersion": "3.0.11",
  "updatedAt": "2019-07-09T21:58:44.708Z",
  "devdoc": {
    "methods": {}
  },
  "userdoc": {
    "methods": {}
  }
}